{"abi":[{"type":"constructor","inputs":[{"name":"_tmgr","type":"address","internalType":"contract TransactionManager"}],"stateMutability":"nonpayable"},{"type":"function","name":"attack","inputs":[],"outputs":[],"stateMutability":"payable"}],"bytecode":{"object":"0x6080604052348015600f57600080fd5b50604051610384380380610384833981016040819052602c916050565b600080546001600160a01b0319166001600160a01b0392909216919091179055607e565b600060208284031215606157600080fd5b81516001600160a01b0381168114607757600080fd5b9392505050565b6102f78061008d6000396000f3fe60806040526004361061001e5760003560e01c80639e5faafc14610023575b600080fd5b61002b61002d565b005b60008054906101000a90046001600160a01b03166001600160a01b0316634d3820eb6040518163ffffffff1660e01b81526004016020604051808303816000875af1158015610080573d6000803e3d6000fd5b505050506040513d601f19601f820116820180604052508101906100a49190610298565b5060005460405163d91921ed60e01b8152678ac7230489e8000060048201526001600160a01b039091169063d91921ed906024016020604051808303816000875af11580156100f7573d6000803e3d6000fd5b505050506040513d601f19601f8201168201806040525081019061011b9190610298565b50600054604051631c0cead360e31b815260016004820152671bc16d674ec8000060248201526001600160a01b039091169063e0675698906044016020604051808303816000875af1158015610175573d6000803e3d6000fd5b505050506040513d601f19601f820116820180604052508101906101999190610298565b50600054604051631c0cead360e31b815260016004820152671bc16d674ec8000060248201526001600160a01b039091169063e0675698906044016020604051808303816000875af11580156101f3573d6000803e3d6000fd5b505050506040513d601f19601f820116820180604052508101906102179190610298565b50600054604051631c0cead360e31b815260016004820152671bc16d674ec8000060248201526001600160a01b039091169063e0675698906044016020604051808303816000875af1158015610271573d6000803e3d6000fd5b505050506040513d601f19601f820116820180604052508101906102959190610298565b50565b6000602082840312156102aa57600080fd5b815180151581146102ba57600080fd5b939250505056fea2646970667358221220e1302c6fe3923bb6951db635389d0b74788ce2e9ca09675ae64163efb4df27fd64736f6c63430008190033","linkReferences":{}},"methodIdentifiers":{"attack()":"9e5faafc"},"id":29}