{"abi":[{"type":"constructor","inputs":[],"stateMutability":"nonpayable"},{"type":"function","name":"addBalance","inputs":[{"name":"amount","type":"uint256","internalType":"uint256"}],"outputs":[{"name":"","type":"bool","internalType":"bool"}],"stateMutability":"nonpayable"},{"type":"function","name":"payInvoice","inputs":[{"name":"amount","type":"uint256","internalType":"uint256"}],"outputs":[{"name":"","type":"bool","internalType":"bool"}],"stateMutability":"nonpayable"},{"type":"function","name":"registerGuest","inputs":[],"outputs":[{"name":"","type":"bool","internalType":"bool"}],"stateMutability":"nonpayable"},{"type":"function","name":"registerHost","inputs":[],"outputs":[{"name":"","type":"bool","internalType":"bool"}],"stateMutability":"nonpayable"},{"type":"function","name":"sendInvoice","inputs":[{"name":"toAddr","type":"address","internalType":"address"},{"name":"amount","type":"uint256","internalType":"uint256"}],"outputs":[{"name":"","type":"bool","internalType":"bool"}],"stateMutability":"nonpayable"},{"type":"function","name":"viewBalance","inputs":[],"outputs":[{"name":"","type":"uint256","internalType":"uint256"}],"stateMutability":"view"},{"type":"function","name":"viewInvoice","inputs":[],"outputs":[{"name":"","type":"uint256","internalType":"uint256"},{"name":"","type":"uint256","internalType":"uint256"},{"name":"","type":"address","internalType":"address"},{"name":"","type":"address","internalType":"address"}],"stateMutability":"view"},{"type":"function","name":"viewRole","inputs":[],"outputs":[{"name":"","type":"uint8","internalType":"uint8"}],"stateMutability":"view"}],"bytecode":{"object":"0x608060405234801561001057600080fd5b50336000908152600160208181526040808420805460ff191684179055805160808101825284815291820184815290820184815260608301858152600380549586018155909552915160049093027fc2575a0e9e593c00f959f8c92f12db2869c3395a3b0502d05e2516446f71f85b810193909355517fc2575a0e9e593c00f959f8c92f12db2869c3395a3b0502d05e2516446f71f85c830155517fc2575a0e9e593c00f959f8c92f12db2869c3395a3b0502d05e2516446f71f85d820180546001600160a01b039283166001600160a01b03199182161790915592517fc2575a0e9e593c00f959f8c92f12db2869c3395a3b0502d05e2516446f71f85e909201805492909116919092161790556108528061012d6000396000f3fe608060405234801561001057600080fd5b50600436106100885760003560e01c80638f1358c41161005b5780638f1358c414610100578063ac60a6cd14610108578063d91921ed1461011b578063ea06d7241461012e57600080fd5b80632abd9c9d1461008d5780632eb852ee146100b75780633ff1e05b146100da578063425d8468146100f8575b600080fd5b3360009081526001602052604090205460ff1660405160ff90911681526020015b60405180910390f35b6100ca6100c5366004610779565b610165565b60405190151581526020016100ae565b336000908152600260205260409020546040519081526020016100ae565b6100ca610305565b6100ca610345565b6100ca6101163660046107b1565b61037f565b6100ca6101293660046107b1565b6105ad565b61013661062e565b6040805194855260208501939093526001600160a01b03918216928401929092521660608201526080016100ae565b3360009081526001602052604081205460ff166002036102fb576001600160a01b03831660009081526001602052604090205460ff166003036102fb57336000908152600460205260409020546003805490919081106101c7576101c76107ca565b9060005260206000209060040201600101546000036102fb5750600380546001600160a01b0380851660008181526004602081815260408084208790553380855281852088905581516080810183528a81529283018a81529183019081526060830195865260018089018a55989094529051919095027fc2575a0e9e593c00f959f8c92f12db2869c3395a3b0502d05e2516446f71f85b81019190915593517fc2575a0e9e593c00f959f8c92f12db2869c3395a3b0502d05e2516446f71f85c850155517fc2575a0e9e593c00f959f8c92f12db2869c3395a3b0502d05e2516446f71f85d840180549184166001600160a01b031992831617905590517fc2575a0e9e593c00f959f8c92f12db2869c3395a3b0502d05e2516446f71f85e90930180549390921692169190911790556102ff565b5060005b92915050565b3360009081526001602052604081205460ff16810361033f5750336000908152600160208190526040909120805460ff1916600217905590565b50600090565b3360009081526001602052604081205460ff16810361033f5750336000908152600160208190526040909120805460ff1916600317905590565b3360009081526001602052604081205460ff166003036105a557336000908152600260205260409020548210156105a557336000908152600460205260408120546003805490919081106103d5576103d56107ca565b9060005260206000209060040201600101549050808310156104d15733600090815260046020526040812054600380548693600293909291811061041b5761041b6107ca565b60009182526020808320600260049093020191909101546001600160a01b03168352820192909252604001812080549091906104589084906107f6565b9091555050336000908152600260205260408120805485929061047c908490610809565b9091555050336000908152600460205260409020546003805485929081106104a6576104a66107ca565b906000526020600020906004020160010160008282546104c69190610809565b9091555061059c9050565b3360009081526004602052604081205460038054849360029390929181106104fb576104fb6107ca565b60009182526020808320600260049093020191909101546001600160a01b03168352820192909252604001812080549091906105389084906107f6565b9091555050336000908152600260205260408120805483929061055c908490610809565b909155505033600090815260046020526040812054600380549091908110610586576105866107ca565b9060005260206000209060040201600101819055505b50600192915050565b506000919050565b33600090815260016020819052604082205460ff1614806105e057503360009081526001602052604090205460ff166002145b806105fd57503360009081526001602052604090205460ff166003145b156105a55733600090815260026020526040812080548492906106219084906107f6565b9091555060019392505050565b3360009081526001602052604081205481908190819060ff16156107665733600090815260046020526040812054900361067357506000925082915081905080610773565b6003805461068390600190610809565b81548110610693576106936107ca565b6000918252602090912060049091020154600380546106b490600190610809565b815481106106c4576106c46107ca565b906000526020600020906004020160010154600360016003805490506106ea9190610809565b815481106106fa576106fa6107ca565b6000918252602090912060026004909202010154600380546001600160a01b039092169161072a90600190610809565b8154811061073a5761073a6107ca565b600091825260209091206003600490920201015492965090945092506001600160a01b03169050610773565b5060009250829150819050805b90919293565b6000806040838503121561078c57600080fd5b82356001600160a01b03811681146107a357600080fd5b946020939093013593505050565b6000602082840312156107c357600080fd5b5035919050565b634e487b7160e01b600052603260045260246000fd5b634e487b7160e01b600052601160045260246000fd5b808201808211156102ff576102ff6107e0565b818103818111156102ff576102ff6107e056fea264697066735822122094adf610ac3dddf5aa007cbea28a28813f573693079ffefec813f5322a6936e564736f6c63430008190033","linkReferences":{}},"methodIdentifiers":{"addBalance(uint256)":"d91921ed","payInvoice(uint256)":"ac60a6cd","registerGuest()":"8f1358c4","registerHost()":"425d8468","sendInvoice(address,uint256)":"2eb852ee","viewBalance()":"3ff1e05b","viewInvoice()":"ea06d724","viewRole()":"2abd9c9d"},"id":23}