{"abi":[{"type":"constructor","inputs":[],"stateMutability":"nonpayable"},{"type":"function","name":"addBalance","inputs":[{"name":"amount","type":"uint256","internalType":"uint256"}],"outputs":[{"name":"","type":"bool","internalType":"bool"}],"stateMutability":"nonpayable"},{"type":"function","name":"distributeRewards","inputs":[{"name":"reward","type":"uint256","internalType":"uint256"}],"outputs":[{"name":"","type":"bool","internalType":"bool"}],"stateMutability":"nonpayable"},{"type":"function","name":"leaderboard","inputs":[{"name":"","type":"uint256","internalType":"uint256"}],"outputs":[{"name":"user","type":"address","internalType":"address"},{"name":"rank","type":"uint256","internalType":"uint256"},{"name":"score","type":"uint256","internalType":"uint256"}],"stateMutability":"view"},{"type":"function","name":"postItem","inputs":[{"name":"itemId","type":"uint256","internalType":"uint256"},{"name":"itemName","type":"string","internalType":"string"},{"name":"itemPrice","type":"uint256","internalType":"uint256"},{"name":"forsale","type":"bool","internalType":"bool"}],"outputs":[{"name":"","type":"uint256","internalType":"uint256"}],"stateMutability":"nonpayable"},{"type":"function","name":"purchaseItem","inputs":[{"name":"itemId","type":"uint256","internalType":"uint256"},{"name":"amount","type":"uint256","internalType":"uint256"}],"outputs":[{"name":"","type":"bool","internalType":"bool"}],"stateMutability":"nonpayable"},{"type":"function","name":"registerUser","inputs":[],"outputs":[{"name":"","type":"bool","internalType":"bool"}],"stateMutability":"nonpayable"},{"type":"function","name":"sellItem","inputs":[{"name":"itemId","type":"uint256","internalType":"uint256"}],"outputs":[{"name":"","type":"bool","internalType":"bool"}],"stateMutability":"nonpayable"},{"type":"function","name":"toString","inputs":[{"name":"_addr","type":"address","internalType":"address"}],"outputs":[{"name":"","type":"string","internalType":"string"}],"stateMutability":"pure"},{"type":"function","name":"uint2str","inputs":[{"name":"_i","type":"uint256","internalType":"uint256"}],"outputs":[{"name":"_uintAsString","type":"string","internalType":"string"}],"stateMutability":"pure"},{"type":"function","name":"viewBalance","inputs":[],"outputs":[{"name":"","type":"uint256","internalType":"uint256"}],"stateMutability":"view"},{"type":"function","name":"viewItem","inputs":[{"name":"itemId","type":"uint256","internalType":"uint256"}],"outputs":[{"name":"","type":"tuple","internalType":"struct TransactionManager.Item","components":[{"name":"itemId","type":"uint256","internalType":"uint256"},{"name":"itemName","type":"string","internalType":"string"},{"name":"itemPrice","type":"uint256","internalType":"uint256"},{"name":"prevSoldPrice","type":"uint256","internalType":"uint256"},{"name":"owner","type":"address","internalType":"address"},{"name":"forsale","type":"bool","internalType":"bool"}]}],"stateMutability":"view"},{"type":"function","name":"viewItems","inputs":[],"outputs":[{"name":"","type":"tuple[]","internalType":"struct TransactionManager.Item[]","components":[{"name":"itemId","type":"uint256","internalType":"uint256"},{"name":"itemName","type":"string","internalType":"string"},{"name":"itemPrice","type":"uint256","internalType":"uint256"},{"name":"prevSoldPrice","type":"uint256","internalType":"uint256"},{"name":"owner","type":"address","internalType":"address"},{"name":"forsale","type":"bool","internalType":"bool"}]}],"stateMutability":"view"},{"type":"function","name":"viewLeaderBoard","inputs":[],"outputs":[{"name":"","type":"string[]","internalType":"string[]"}],"stateMutability":"view"},{"type":"function","name":"viewRole","inputs":[],"outputs":[{"name":"","type":"uint8","internalType":"uint8"}],"stateMutability":"view"}],"bytecode":{"object":"0x608060405234801561001057600080fd5b50336000908152600360209081526040808320805460ff191660019081179091556002849055815160c081018352848152825180840184526007815266191959985d5b1d60ca1b8186015281850152808301859052606081018590526080810185905260a0810185905282518084019093528083528284018590526006805492830181559485905282518051929095027ff652222313e28459528d920b65115c16c04f3efc82aaedc97be59f3f377c0d3f8101928355938501519094929384939183917ff652222313e28459528d920b65115c16c04f3efc82aaedc97be59f3f377c0d4001906101009082610219565b50604082015160028201556060820151600382015560808201516004909101805460a0909301511515600160a01b026001600160a81b03199093166001600160a01b0392831617929092179091556020929092015160059091018054919092166001600160a01b031991909116179055506102d89050565b634e487b7160e01b600052604160045260246000fd5b600181811c908216806101a257607f821691505b6020821081036101c257634e487b7160e01b600052602260045260246000fd5b50919050565b601f821115610214576000816000526020600020601f850160051c810160208610156101f15750805b601f850160051c820191505b81811015610210578281556001016101fd565b5050505b505050565b81516001600160401b0381111561023257610232610178565b61024681610240845461018e565b846101c8565b602080601f83116001811461027b57600084156102635750858301515b600019600386901b1c1916600185901b178555610210565b600085815260208120601f198616915b828110156102aa5788860151825594840194600190910190840161028b565b50858210156102c85787850151600019600388901b60f8161c191681555b5050505050600190811b01905550565b611e13806102e76000396000f3fe608060405234801561001057600080fd5b50600436106100ea5760003560e01c80636f7b01551161008c578063d91921ed11610066578063d91921ed14610218578063e06756981461022b578063ed3323011461023e578063f76f950e1461025157600080fd5b80636f7b0155146101ad57806391b6be9a146101cd578063bf368399146101e057600080fd5b80634d3820eb116100c85780634d3820eb1461014d5780634dbcd2571461016557806356ca623e1461017a57806359974e381461019a57600080fd5b80632abd9c9d146100ef57806331e3c6bb146101195780633ff1e05b1461012e575b600080fd5b3360009081526003602052604090205460ff1660405160ff90911681526020015b60405180910390f35b610121610264565b604051610110919061192c565b336000908152600460205260409020545b604051908152602001610110565b610155610446565b6040519015158152602001610110565b61016d610485565b6040516101109190611990565b61018d6101883660046119e7565b6105a4565b6040516101109190611a17565b6101556101a8366004611a2a565b610785565b6101c06101bb366004611a2a565b61084a565b6040516101109190611a43565b6101556101db366004611a2a565b61094c565b6101f36101ee366004611a2a565b610d0c565b604080516001600160a01b039094168452602084019290925290820152606001610110565b610155610226366004611a2a565b610d49565b610155610239366004611a56565b610da0565b61013f61024c366004611a78565b610f86565b61018d61025f366004611a2a565b61129c565b60075460609060009067ffffffffffffffff81111561028557610285611b18565b6040519080825280602002602001820160405280156102be57816020015b6102ab61183e565b8152602001906001900390816102a35790505b5090506000805b60075481101561043e57600781815481106102e2576102e2611b2e565b906000526020600020906005020160040160149054906101000a900460ff1615610436576007818154811061031957610319611b2e565b90600052602060002090600502016040518060c00160405290816000820154815260200160018201805461034c90611b44565b80601f016020809104026020016040519081016040528092919081815260200182805461037890611b44565b80156103c55780601f1061039a576101008083540402835291602001916103c5565b820191906000526020600020905b8154815290600101906020018083116103a857829003601f168201915b505050918352505060028201546020820152600382015460408201526004909101546001600160a01b0381166060830152600160a01b900460ff161515608090910152835184908490811061041c5761041c611b2e565b6020026020010181905250818061043290611b8e565b9250505b6001016102c5565b509092915050565b3360009081526003602052604081205460ff16810361047f5750336000908152600360205260409020805460ff19166002179055600190565b50600090565b600080546060919067ffffffffffffffff8111156104a5576104a5611b18565b6040519080825280602002602001820160405280156104d857816020015b60608152602001906001900390816104c35790505b50905060005b60005481101561059e5761051d600082815481106104fe576104fe611b2e565b60009182526020909120600390910201546001600160a01b03166105a4565b61052b61025f836001611ba7565b6105586000848154811061054157610541611b2e565b90600052602060002090600302016002015461129c565b60405160200161056a93929190611bba565b60405160208183030381529060405282828151811061058b5761058b611b2e565b60209081029190910101526001016104de565b50919050565b604080518082018252601081526f181899199a1a9b1b9c1cb0b131b232b360811b60208201528151602a80825260608281019094526001600160a01b0385169291600091602082018180368337019050509050600360fc1b8160008151811061060f5761060f611b2e565b60200101906001600160f81b031916908160001a905350600f60fb1b8160018151811061063e5761063e611b2e565b60200101906001600160f81b031916908160001a90535060005b601481101561077c578260048561067084600c611ba7565b6020811061068057610680611b2e565b1a60f81b6001600160f81b031916901c60f81c60ff16815181106106a6576106a6611b2e565b01602001516001600160f81b031916826106c1836002611c3a565b6106cc906002611ba7565b815181106106dc576106dc611b2e565b60200101906001600160f81b031916908160001a905350828461070083600c611ba7565b6020811061071057610710611b2e565b825191901a600f1690811061072757610727611b2e565b01602001516001600160f81b03191682610742836002611c3a565b61074d906003611ba7565b8151811061075d5761075d611b2e565b60200101906001600160f81b031916908160001a905350600101610658565b50949350505050565b3360009081526003602052604081205460ff1660010361084257336000908152600460205260409020548211156107be57506000919050565b33600090815260046020526040812080548492906107dd908490611c51565b925050819055508160046000806000815481106107fc576107fc611b2e565b600091825260208083206003909202909101546001600160a01b0316835282019290925260400181208054909190610835908490611ba7565b9091555060019392505050565b506000919050565b61085261183e565b600960008381526020019081526020016000206040518060c00160405290816000820154815260200160018201805461088a90611b44565b80601f01602080910402602001604051908101604052809291908181526020018280546108b690611b44565b80156109035780601f106108d857610100808354040283529160200191610903565b820191906000526020600020905b8154815290600101906020018083116108e657829003601f168201915b505050918352505060028201546020820152600382015460408201526004909101546001600160a01b0381166060830152600160a01b900460ff16151560809091015292915050565b60008160000361095e57506000919050565b6000828152600960205260409020600401546001600160a01b0316331461098757506000919050565b600082815260056020526040902054600311156109a657506000919050565b604080518082019091526000808252602082018190529060005b600085815260056020526040902054811015610a9f5760008581526005602052604090208054849190839081106109f9576109f9611b2e565b9060005260206000209060020201600101541115610a97576000858152600560205260409020805482908110610a3157610a31611b2e565b60009182526020808320604080518082018252600290940290910180546001600160a01b031684526001015483830152888452600590915290912080549193509082908110610a8257610a82611b2e565b90600052602060002090600202016001015492505b6001016109c0565b506000600960008681526020019081526020016000206040518060c001604052908160008201548152602001600182018054610ada90611b44565b80601f0160208091040260200160405190810160405280929190818152602001828054610b0690611b44565b8015610b535780601f10610b2857610100808354040283529160200191610b53565b820191906000526020600020905b815481529060010190602001808311610b3657829003601f168201915b505050918352505060028201546020820152600382015460408201526004909101546001600160a01b0381166060830152600160a01b900460ff161515608091820152810151909150610ba79082906113bf565b5060208083015183516001600160a01b03166000908152600490925260408220805491929091610bd8908490611c51565b9091555050602080830151336000908152600490925260408220805491929091610c03908490611ba7565b909155505081516001600160a01b031660808201526020808301516060830152600060a08301819052868152600982526040902082518155908201518291906001820190610c519082611cb5565b50604082015160028201556060820151600382015560808201516004909101805460a0909301511515600160a01b026001600160a81b03199093166001600160a01b03909216919091179190911790555b60008581526005602052604090205415610d01576000858152600560205260409020805480610cd357610cd3611d75565b60008281526020812060026000199093019283020180546001600160a01b0319168155600101559055610ca2565b506001949350505050565b60008181548110610d1c57600080fd5b60009182526020909120600390910201805460018201546002909201546001600160a01b03909116925083565b3360009081526003602052604081205460ff1660011480610d7c57503360009081526003602052604090205460ff166002145b15610842573360009081526004602052604081208054849290610835908490611ba7565b3360009081526003602052604081205460ff16600214610dc257506000610f80565b600754831180610dd0575082155b15610ddd57506000610f80565b6000600960008581526020019081526020016000206040518060c001604052908160008201548152602001600182018054610e1790611b44565b80601f0160208091040260200160405190810160405280929190818152602001828054610e4390611b44565b8015610e905780601f10610e6557610100808354040283529160200191610e90565b820191906000526020600020905b815481529060010190602001808311610e7357829003601f168201915b505050918352505060028201546020820152600382015460408201526004909101546001600160a01b0381166060830152600160a01b900460ff16151560809091015260a0810151909150610ee9576000915050610f80565b33600090815260046020526040902054831115610f0a576000915050610f80565b8060400151831015610f20576000915050610f80565b50506040805180820182523381526020808201848152600086815260058352938420805460018082018355918652929094209251600290920290920180546001600160a01b0319166001600160a01b039092169190911781559051908201555b92915050565b3360009081526003602052604081205460ff16600214610fa857506000611293565b85156110cf576000868152600960205260409020600401546001600160a01b03163314610fd757506000611293565b60006040518060c0016040528088815260200187878080601f016020809104026020016040519081016040528093929190818152602001838380828437600092018290525093855250505060208083018890528a82526009808252604080842060030154818601523360608601528815156080909501949094528451835281529190208251815590820151919250829160018201906110769082611cb5565b50604082015160028201556060820151600382015560808201516004909101805460a0909301511515600160a01b026001600160a81b03199093166001600160a01b039092169190911791909117905550859050611293565b600280549060006110df83611b8e565b919050555060006040518060c00160405280600254815260200187878080601f0160208091040260200160405190810160405280939291908181526020018383808284376000920182905250938552505050602080830188905260408301829052336060840152861515608090930192909252600780546001810182559152825160059091027fa66cc928b5edb82af9bd49922954155ab7b0942694bea4ce44661d9a8736c688810191825591830151929350839290917fa66cc928b5edb82af9bd49922954155ab7b0942694bea4ce44661d9a8736c68901906111c39082611cb5565b5060408281015160028301556060830151600383015560808301516004909201805460a0909401511515600160a01b026001600160a81b03199094166001600160a01b039093169290921792909217905581516000908152600960209081529190208251815590820151829190600182019061123f9082611cb5565b50604082015160028201556060820151600382015560808201516004909101805460a0909301511515600160a01b026001600160a81b03199093166001600160a01b03909216919091179190911790555190505b95945050505050565b6060816000036112c35750506040805180820190915260018152600360fc1b602082015290565b8160005b81156112ed57806112d781611b8e565b91506112e69050600a83611d8b565b91506112c7565b60008167ffffffffffffffff81111561130857611308611b18565b6040519080825280601f01601f191660200182016040528015611332576020820181803683370190505b509050815b851561077c57611348600182611c51565b90506000611357600a88611d8b565b61136290600a611c3a565b61136c9088611c51565b611377906030611dad565b905060008160f81b90508084848151811061139457611394611b2e565b60200101906001600160f81b031916908160001a9053506113b6600a89611d8b565b97505050611337565b6000806000805b60005481101561141757600081815481106113e3576113e3611b2e565b60009182526020909120600390910201546001600160a01b039081169086160361140f57600191508092505b6001016113c6565b506000856040015186606001511115611445578560400151866060015161143e9190611c51565b9050611449565b5060005b8060000361145d5760009350505050610f80565b816115445760006040518060600160405280876001600160a01b0316815260200160008054905060016114909190611ba7565b815260209081018490526000805460018101825590805282517f290decd9548b62a8d60345a988386fc84ba6bc95484008f6362f93160ef3e563600390920291820180546001600160a01b0319166001600160a01b03909216919091179055908201517f290decd9548b62a8d60345a988386fc84ba6bc95484008f6362f93160ef3e5648201556040909101517f290decd9548b62a8d60345a988386fc84ba6bc95484008f6362f93160ef3e56590910155505b811561158457806000848154811061155e5761155e611b2e565b9060005260206000209060030201600201600082825461157e9190611ba7565b90915550505b6000805461159e919061159990600190611c51565b6115aa565b50600195945050505050565b8082106115b5575050565b60008060026115c48486611ba7565b6115ce9190611d8b565b815481106115de576115de611b2e565b6000918252602090912060026003909202010154905082825b8082101561180c575b826000838154811061161457611614611b2e565b906000526020600020906003020160020154111561163e578161163681611b8e565b925050611600565b826000828154811061165257611652611b2e565b906000526020600020906003020160020154101561167c578061167481611dc6565b91505061163e565b6000818154811061168f5761168f611b2e565b906000526020600020906003020160020154600083815481106116b4576116b4611b2e565b90600052602060002090600302016002015410156117fa5760008083815481106116e0576116e0611b2e565b6000918252602080832060408051606081018252600390940290910180546001600160a01b031684526001810154928401929092526002909101549082015281549092508390811061173457611734611b2e565b90600052602060002090600302016000848154811061175557611755611b2e565b600091825260208220835460039092020180546001600160a01b0319166001600160a01b03909216919091178155600180840154908201556002928301549201919091558054829190849081106117ae576117ae611b2e565b600091825260209182902083516003929092020180546001600160a01b0319166001600160a01b03909216919091178155908201516001820155604090910151600290910155506115f7565b8161180481611b8e565b9250506115f7565b848111156118235761182385611599600184611c51565b611837611831826001611ba7565b856115aa565b5050505050565b6040518060c001604052806000815260200160608152602001600081526020016000815260200160006001600160a01b031681526020016000151581525090565b60005b8381101561189a578181015183820152602001611882565b50506000910152565b600081518084526118bb81602086016020860161187f565b601f01601f19169290920160200192915050565b805182526000602082015160c060208501526118ee60c08501826118a3565b60408481015190860152606080850151908601526080808501516001600160a01b03169086015260a093840151151593909401929092525090919050565b600060208083016020845280855180835260408601915060408160051b87010192506020870160005b8281101561198357603f198886030184526119718583516118cf565b94509285019290850190600101611955565b5092979650505050505050565b600060208083016020845280855180835260408601915060408160051b87010192506020870160005b8281101561198357603f198886030184526119d58583516118a3565b945092850192908501906001016119b9565b6000602082840312156119f957600080fd5b81356001600160a01b0381168114611a1057600080fd5b9392505050565b602081526000611a1060208301846118a3565b600060208284031215611a3c57600080fd5b5035919050565b602081526000611a1060208301846118cf565b60008060408385031215611a6957600080fd5b50508035926020909101359150565b600080600080600060808688031215611a9057600080fd5b85359450602086013567ffffffffffffffff80821115611aaf57600080fd5b818801915088601f830112611ac357600080fd5b813581811115611ad257600080fd5b896020828501011115611ae457600080fd5b6020830196508095505050506040860135915060608601358015158114611b0a57600080fd5b809150509295509295909350565b634e487b7160e01b600052604160045260246000fd5b634e487b7160e01b600052603260045260246000fd5b600181811c90821680611b5857607f821691505b60208210810361059e57634e487b7160e01b600052602260045260246000fd5b634e487b7160e01b600052601160045260246000fd5b600060018201611ba057611ba0611b78565b5060010190565b80820180821115610f8057610f80611b78565b6502ab9b2b91d160d51b815260008451611bdb81600685016020890161187f565b67016102930b7359d160c51b6006918401918201528451611c0381600e84016020890161187f565b680161029b1b7b9329d160bd1b600e92909101918201528351611c2d81601784016020880161187f565b0160170195945050505050565b8082028115828204841417610f8057610f80611b78565b81810381811115610f8057610f80611b78565b601f821115611cb0576000816000526020600020601f850160051c81016020861015611c8d5750805b601f850160051c820191505b81811015611cac57828155600101611c99565b5050505b505050565b815167ffffffffffffffff811115611ccf57611ccf611b18565b611ce381611cdd8454611b44565b84611c64565b602080601f831160018114611d185760008415611d005750858301515b600019600386901b1c1916600185901b178555611cac565b600085815260208120601f198616915b82811015611d4757888601518255948401946001909101908401611d28565b5085821015611d655787850151600019600388901b60f8161c191681555b5050505050600190811b01905550565b634e487b7160e01b600052603160045260246000fd5b600082611da857634e487b7160e01b600052601260045260246000fd5b500490565b60ff8181168382160190811115610f8057610f80611b78565b600081611dd557611dd5611b78565b50600019019056fea2646970667358221220b14a9f6062ed761d0b9ca34efe367418ca1d9a74e0ce65914848cbeef664b2cb64736f6c63430008190033","linkReferences":{}},"methodIdentifiers":{"addBalance(uint256)":"d91921ed","distributeRewards(uint256)":"59974e38","leaderboard(uint256)":"bf368399","postItem(uint256,string,uint256,bool)":"ed332301","purchaseItem(uint256,uint256)":"e0675698","registerUser()":"4d3820eb","sellItem(uint256)":"91b6be9a","toString(address)":"56ca623e","uint2str(uint256)":"f76f950e","viewBalance()":"3ff1e05b","viewItem(uint256)":"6f7b0155","viewItems()":"31e3c6bb","viewLeaderBoard()":"4dbcd257","viewRole()":"2abd9c9d"},"id":24}