{"abi":[{"type":"constructor","inputs":[],"stateMutability":"nonpayable"},{"type":"fallback","stateMutability":"payable"},{"type":"receive","stateMutability":"payable"},{"type":"function","name":"addBalance","inputs":[{"name":"amount","type":"uint256","internalType":"uint256"}],"outputs":[{"name":"","type":"bool","internalType":"bool"}],"stateMutability":"nonpayable"},{"type":"function","name":"distributeRewards","inputs":[{"name":"reward","type":"uint256","internalType":"uint256"}],"outputs":[{"name":"","type":"bool","internalType":"bool"}],"stateMutability":"nonpayable"},{"type":"function","name":"leaderboard","inputs":[{"name":"","type":"uint256","internalType":"uint256"}],"outputs":[{"name":"user","type":"address","internalType":"address"},{"name":"rank","type":"uint256","internalType":"uint256"},{"name":"score","type":"uint256","internalType":"uint256"}],"stateMutability":"view"},{"type":"function","name":"postItem","inputs":[{"name":"itemId","type":"uint256","internalType":"uint256"},{"name":"itemName","type":"string","internalType":"string"},{"name":"itemPrice","type":"uint256","internalType":"uint256"},{"name":"forsale","type":"bool","internalType":"bool"}],"outputs":[{"name":"","type":"uint256","internalType":"uint256"}],"stateMutability":"nonpayable"},{"type":"function","name":"purchaseItem","inputs":[{"name":"itemId","type":"uint256","internalType":"uint256"},{"name":"amount","type":"uint256","internalType":"uint256"}],"outputs":[{"name":"","type":"bool","internalType":"bool"}],"stateMutability":"nonpayable"},{"type":"function","name":"registerUser","inputs":[],"outputs":[{"name":"","type":"bool","internalType":"bool"}],"stateMutability":"nonpayable"},{"type":"function","name":"sellItem","inputs":[{"name":"itemId","type":"uint256","internalType":"uint256"}],"outputs":[{"name":"","type":"bool","internalType":"bool"}],"stateMutability":"nonpayable"},{"type":"function","name":"toString","inputs":[{"name":"_addr","type":"address","internalType":"address"}],"outputs":[{"name":"","type":"string","internalType":"string"}],"stateMutability":"pure"},{"type":"function","name":"uint2str","inputs":[{"name":"_i","type":"uint256","internalType":"uint256"}],"outputs":[{"name":"_uintAsString","type":"string","internalType":"string"}],"stateMutability":"pure"},{"type":"function","name":"viewBalance","inputs":[],"outputs":[{"name":"","type":"uint256","internalType":"uint256"}],"stateMutability":"view"},{"type":"function","name":"viewItem","inputs":[{"name":"itemId","type":"uint256","internalType":"uint256"}],"outputs":[{"name":"","type":"tuple","internalType":"struct TransactionManager.Item","components":[{"name":"itemId","type":"uint256","internalType":"uint256"},{"name":"itemName","type":"string","internalType":"string"},{"name":"itemPrice","type":"uint256","internalType":"uint256"},{"name":"prevSoldPrice","type":"uint256","internalType":"uint256"},{"name":"owner","type":"address","internalType":"address"},{"name":"forsale","type":"bool","internalType":"bool"}]}],"stateMutability":"view"},{"type":"function","name":"viewItems","inputs":[],"outputs":[{"name":"","type":"tuple[]","internalType":"struct TransactionManager.Item[]","components":[{"name":"itemId","type":"uint256","internalType":"uint256"},{"name":"itemName","type":"string","internalType":"string"},{"name":"itemPrice","type":"uint256","internalType":"uint256"},{"name":"prevSoldPrice","type":"uint256","internalType":"uint256"},{"name":"owner","type":"address","internalType":"address"},{"name":"forsale","type":"bool","internalType":"bool"}]}],"stateMutability":"view"},{"type":"function","name":"viewLeaderBoard","inputs":[],"outputs":[{"name":"","type":"string[]","internalType":"string[]"}],"stateMutability":"view"},{"type":"function","name":"viewRole","inputs":[],"outputs":[{"name":"","type":"uint8","internalType":"uint8"}],"stateMutability":"view"},{"type":"error","name":"ReentrancyGuardReentrantCall","inputs":[]}],"bytecode":{"object":"0x608060405234801561001057600080fd5b5060016000818155338152600460209081526040808320805460ff1916851790556003839055805160c08101825283815281518083018352600780825266191959985d5b1d60ca1b82860152938201908152918101849052606081018490526080810184905260a081018490528254948501835591909252805160059093027fa66cc928b5edb82af9bd49922954155ab7b0942694bea4ce44661d9a8736c688810193845591519092839290917fa66cc928b5edb82af9bd49922954155ab7b0942694bea4ce44661d9a8736c689909101906100ec90826101e3565b50604082015160028201556060820151600382015560808201516004909101805460a0909301511515600160a01b026001600160a81b03199093166001600160a01b0390921691909117919091179055506102a2565b634e487b7160e01b600052604160045260246000fd5b600181811c9082168061016c57607f821691505b60208210810361018c57634e487b7160e01b600052602260045260246000fd5b50919050565b601f8211156101de576000816000526020600020601f850160051c810160208610156101bb5750805b601f850160051c820191505b818110156101da578281556001016101c7565b5050505b505050565b81516001600160401b038111156101fc576101fc610142565b6102108161020a8454610158565b84610192565b602080601f831160018114610245576000841561022d5750858301515b600019600386901b1c1916600185901b1785556101da565b600085815260208120601f198616915b8281101561027457888601518255948401946001909101908401610255565b50858210156102925787850151600019600388901b60f8161c191681555b5050505050600190811b01905550565b611fa9806102b16000396000f3fe6080604052600436106100e15760003560e01c80636f7b01551161007f578063d91921ed11610059578063d91921ed146102ca578063e0675698146102ea578063ed3323011461030a578063f76f950e1461032a57610107565b80636f7b01551461023857806391b6be9a14610265578063bf3683991461028557610107565b80634d3820eb116100bb5780634d3820eb146101a45780634dbcd257146101c957806356ca623e146101eb57806359974e381461021857610107565b80632abd9c9d1461011f57806331e3c6bb146101565780633ff1e05b1461017857610107565b366101075760405162461bcd60e51b81526004016100fe906119d4565b60405180910390fd5b60405162461bcd60e51b81526004016100fe906119d4565b34801561012b57600080fd5b503360009081526004602052604090205460ff1660405160ff90911681526020015b60405180910390f35b34801561016257600080fd5b5061016b61034a565b60405161014d9190611ac2565b34801561018457600080fd5b50336000908152600560205260409020545b60405190815260200161014d565b3480156101b057600080fd5b506101b961052c565b604051901515815260200161014d565b3480156101d557600080fd5b506101de61056b565b60405161014d9190611b26565b3480156101f757600080fd5b5061020b610206366004611b7d565b61068b565b60405161014d9190611bad565b34801561022457600080fd5b506101b9610233366004611bc0565b61086c565b34801561024457600080fd5b50610258610253366004611bc0565b610946565b60405161014d9190611bd9565b34801561027157600080fd5b506101b9610280366004611bc0565b610a48565b34801561029157600080fd5b506102a56102a0366004611bc0565b610e1c565b604080516001600160a01b03909416845260208401929092529082015260600161014d565b3480156102d657600080fd5b506101b96102e5366004611bc0565b610e59565b3480156102f657600080fd5b506101b9610305366004611bec565b610eb0565b34801561031657600080fd5b50610196610325366004611c0e565b611096565b34801561033657600080fd5b5061020b610345366004611bc0565b6113c0565b60075460609060009067ffffffffffffffff81111561036b5761036b611cae565b6040519080825280602002602001820160405280156103a457816020015b610391611993565b8152602001906001900390816103895790505b5090506000805b60075481101561052457600781815481106103c8576103c8611cc4565b906000526020600020906005020160040160149054906101000a900460ff161561051c57600781815481106103ff576103ff611cc4565b90600052602060002090600502016040518060c00160405290816000820154815260200160018201805461043290611cda565b80601f016020809104026020016040519081016040528092919081815260200182805461045e90611cda565b80156104ab5780601f10610480576101008083540402835291602001916104ab565b820191906000526020600020905b81548152906001019060200180831161048e57829003601f168201915b505050918352505060028201546020820152600382015460408201526004909101546001600160a01b0381166060830152600160a01b900460ff161515608090910152835184908490811061050257610502611cc4565b6020026020010181905250818061051890611d24565b9250505b6001016103ab565b509092915050565b3360009081526004602052604081205460ff1681036105655750336000908152600460205260409020805460ff19166002179055600190565b50600090565b60015460609060009067ffffffffffffffff81111561058c5761058c611cae565b6040519080825280602002602001820160405280156105bf57816020015b60608152602001906001900390816105aa5790505b50905060005b60015481101561068557610604600182815481106105e5576105e5611cc4565b60009182526020909120600390910201546001600160a01b031661068b565b610612610345836001611d3d565b61063f6001848154811061062857610628611cc4565b9060005260206000209060030201600201546113c0565b60405160200161065193929190611d50565b60405160208183030381529060405282828151811061067257610672611cc4565b60209081029190910101526001016105c5565b50919050565b604080518082018252601081526f181899199a1a9b1b9c1cb0b131b232b360811b60208201528151602a80825260608281019094526001600160a01b0385169291600091602082018180368337019050509050600360fc1b816000815181106106f6576106f6611cc4565b60200101906001600160f81b031916908160001a905350600f60fb1b8160018151811061072557610725611cc4565b60200101906001600160f81b031916908160001a90535060005b6014811015610863578260048561075784600c611d3d565b6020811061076757610767611cc4565b1a60f81b6001600160f81b031916901c60f81c60ff168151811061078d5761078d611cc4565b01602001516001600160f81b031916826107a8836002611dd0565b6107b3906002611d3d565b815181106107c3576107c3611cc4565b60200101906001600160f81b031916908160001a90535082846107e783600c611d3d565b602081106107f7576107f7611cc4565b825191901a600f1690811061080e5761080e611cc4565b01602001516001600160f81b03191682610829836002611dd0565b610834906003611d3d565b8151811061084457610844611cc4565b60200101906001600160f81b031916908160001a90535060010161073f565b50949350505050565b600154600090810361088057506000919050565b3360009081526004602052604090205460ff1660010361093e57336000908152600560205260409020548211156108b957506000919050565b33600090815260056020526040812080548492906108d8908490611de7565b92505081905550816005600060016000815481106108f8576108f8611cc4565b600091825260208083206003909202909101546001600160a01b0316835282019290925260400181208054909190610931908490611d3d565b9091555060019392505050565b506000919050565b61094e611993565b600860008381526020019081526020016000206040518060c00160405290816000820154815260200160018201805461098690611cda565b80601f01602080910402602001604051908101604052809291908181526020018280546109b290611cda565b80156109ff5780601f106109d4576101008083540402835291602001916109ff565b820191906000526020600020905b8154815290600101906020018083116109e257829003601f168201915b505050918352505060028201546020820152600382015460408201526004909101546001600160a01b0381166060830152600160a01b900460ff16151560809091015292915050565b6000610a526114e3565b81600003610a6257506000610e0d565b6000828152600860205260409020600401546001600160a01b03163314610a8b57506000610e0d565b60008281526006602052604090205460031115610aaa57506000610e0d565b604080518082019091526000808252602082018190529060005b600085815260066020526040902054811015610ba3576000858152600660205260409020805484919083908110610afd57610afd611cc4565b9060005260206000209060020201600101541115610b9b576000858152600660205260409020805482908110610b3557610b35611cc4565b60009182526020808320604080518082018252600290940290910180546001600160a01b031684526001015483830152888452600690915290912080549193509082908110610b8657610b86611cc4565b90600052602060002090600202016001015492505b600101610ac4565b506000600860008681526020019081526020016000206040518060c001604052908160008201548152602001600182018054610bde90611cda565b80601f0160208091040260200160405190810160405280929190818152602001828054610c0a90611cda565b8015610c575780601f10610c2c57610100808354040283529160200191610c57565b820191906000526020600020905b815481529060010190602001808311610c3a57829003601f168201915b505050918352505060028201546020820152600382015460408201526004909101546001600160a01b0381166060830152600160a01b900460ff161515608091820152810151909150610cab90829061150d565b5060208083015183516001600160a01b03166000908152600590925260408220805491929091610cdc908490611de7565b9091555050602080830151336000908152600590925260408220805491929091610d07908490611d3d565b909155505081516001600160a01b031660808201526020808301516060830152600060a08301819052868152600882526040902082518155908201518291906001820190610d559082611e4b565b50604082015160028201556060820151600382015560808201516004909101805460a0909301511515600160a01b026001600160a81b03199093166001600160a01b03909216919091179190911790555b60008581526006602052604090205415610e05576000858152600660205260409020805480610dd757610dd7611f0b565b60008281526020812060026000199093019283020180546001600160a01b0319168155600101559055610da6565b600193505050505b610e176001600055565b919050565b60018181548110610e2c57600080fd5b60009182526020909120600390910201805460018201546002909201546001600160a01b03909116925083565b3360009081526004602052604081205460ff1660011480610e8c57503360009081526004602052604090205460ff166002145b1561093e573360009081526005602052604081208054849290610931908490611d3d565b3360009081526004602052604081205460ff16600214610ed257506000611090565b600754831180610ee0575082155b15610eed57506000611090565b6000600860008581526020019081526020016000206040518060c001604052908160008201548152602001600182018054610f2790611cda565b80601f0160208091040260200160405190810160405280929190818152602001828054610f5390611cda565b8015610fa05780601f10610f7557610100808354040283529160200191610fa0565b820191906000526020600020905b815481529060010190602001808311610f8357829003601f168201915b505050918352505060028201546020820152600382015460408201526004909101546001600160a01b0381166060830152600160a01b900460ff16151560809091015260a0810151909150610ff9576000915050611090565b3360009081526005602052604090205483111561101a576000915050611090565b8060400151831015611030576000915050611090565b50506040805180820182523381526020808201848152600086815260068352938420805460018082018355918652929094209251600290920290920180546001600160a01b0319166001600160a01b039092169190911781559051908201555b92915050565b60006110a06114e3565b3360009081526004602052604090205460ff166002146110c2575060006113ad565b85156111e9576000868152600860205260409020600401546001600160a01b031633146110f1575060006113ad565b60006040518060c0016040528088815260200187878080601f016020809104026020016040519081016040528093929190818152602001838380828437600092018290525093855250505060208083018890528a82526008808252604080842060030154818601523360608601528815156080909501949094528451835281529190208251815590820151919250829160018201906111909082611e4b565b50604082015160028201556060820151600382015560808201516004909101805460a0909301511515600160a01b026001600160a81b03199093166001600160a01b0390921691909117919091179055508590506113ad565b600380549060006111f983611d24565b919050555060006040518060c00160405280600354815260200187878080601f0160208091040260200160405190810160405280939291908181526020018383808284376000920182905250938552505050602080830188905260408301829052336060840152861515608090930192909252600780546001810182559152825160059091027fa66cc928b5edb82af9bd49922954155ab7b0942694bea4ce44661d9a8736c688810191825591830151929350839290917fa66cc928b5edb82af9bd49922954155ab7b0942694bea4ce44661d9a8736c68901906112dd9082611e4b565b5060408281015160028301556060830151600383015560808301516004909201805460a0909401511515600160a01b026001600160a81b03199094166001600160a01b03909316929092179290921790558151600090815260086020908152919020825181559082015182919060018201906113599082611e4b565b50604082015160028201556060820151600382015560808201516004909101805460a0909301511515600160a01b026001600160a81b03199093166001600160a01b03909216919091179190911790555190505b6113b76001600055565b95945050505050565b6060816000036113e75750506040805180820190915260018152600360fc1b602082015290565b8160005b811561141157806113fb81611d24565b915061140a9050600a83611f21565b91506113eb565b60008167ffffffffffffffff81111561142c5761142c611cae565b6040519080825280601f01601f191660200182016040528015611456576020820181803683370190505b509050815b85156108635761146c600182611de7565b9050600061147b600a88611f21565b61148690600a611dd0565b6114909088611de7565b61149b906030611f43565b905060008160f81b9050808484815181106114b8576114b8611cc4565b60200101906001600160f81b031916908160001a9053506114da600a89611f21565b9750505061145b565b60026000540361150657604051633ee5aeb560e01b815260040160405180910390fd5b6002600055565b6000806000805b600154811015611565576001818154811061153157611531611cc4565b60009182526020909120600390910201546001600160a01b039081169086160361155d57600191508092505b600101611514565b506000856040015186606001511115611593578560400151866060015161158c9190611de7565b9050611597565b5060005b806000036115ab5760009350505050611090565b816116945760006040518060600160405280876001600160a01b0316815260200160018054905060016115de9190611d3d565b8152602090810184905260018054808201825560009190915282517fb10e2d527612073b26eecdfd717e6a320cf44b4afac2b0732d9fcbe2b7fa0cf6600390920291820180546001600160a01b0319166001600160a01b03909216919091179055908201517fb10e2d527612073b26eecdfd717e6a320cf44b4afac2b0732d9fcbe2b7fa0cf78201556040909101517fb10e2d527612073b26eecdfd717e6a320cf44b4afac2b0732d9fcbe2b7fa0cf890910155505b81156116d45780600184815481106116ae576116ae611cc4565b906000526020600020906003020160020160008282546116ce9190611d3d565b90915550505b600180546116ee916000916116e99190611de7565b6116fa565b50600195945050505050565b808210611705575050565b6000600160026117158486611d3d565b61171f9190611f21565b8154811061172f5761172f611cc4565b6000918252602090912060026003909202010154905082825b80821015611961575b826001838154811061176557611765611cc4565b906000526020600020906003020160020154111561178f578161178781611d24565b925050611751565b82600182815481106117a3576117a3611cc4565b90600052602060002090600302016002015410156117cd57806117c581611f5c565b91505061178f565b600181815481106117e0576117e0611cc4565b9060005260206000209060030201600201546001838154811061180557611805611cc4565b906000526020600020906003020160020154101561194f5760006001838154811061183257611832611cc4565b600091825260209182902060408051606081018252600390930290910180546001600160a01b0316835260018082015494840194909452600201549082015281549092508390811061188657611886611cc4565b9060005260206000209060030201600184815481106118a7576118a7611cc4565b60009182526020909120825460039092020180546001600160a01b0319166001600160a01b0390921691909117815560018083015481830155600292830154929091019190915580548291908490811061190357611903611cc4565b600091825260209182902083516003929092020180546001600160a01b0319166001600160a01b0390921691909117815590820151600182015560409091015160029091015550611748565b8161195981611d24565b925050611748565b8481111561197857611978856116e9600184611de7565b61198c611986826001611d3d565b856116fa565b5050505050565b6040518060c001604052806000815260200160608152602001600081526020016000815260200160006001600160a01b031681526020016000151581525090565b60208082526021908201527f446972656374204574686572207472616e73666572206e6f7420616c6c6f77656040820152601960fa1b606082015260800190565b60005b83811015611a30578181015183820152602001611a18565b50506000910152565b60008151808452611a51816020860160208601611a15565b601f01601f19169290920160200192915050565b805182526000602082015160c06020850152611a8460c0850182611a39565b60408481015190860152606080850151908601526080808501516001600160a01b03169086015260a093840151151593909401929092525090919050565b600060208083016020845280855180835260408601915060408160051b87010192506020870160005b82811015611b1957603f19888603018452611b07858351611a65565b94509285019290850190600101611aeb565b5092979650505050505050565b600060208083016020845280855180835260408601915060408160051b87010192506020870160005b82811015611b1957603f19888603018452611b6b858351611a39565b94509285019290850190600101611b4f565b600060208284031215611b8f57600080fd5b81356001600160a01b0381168114611ba657600080fd5b9392505050565b602081526000611ba66020830184611a39565b600060208284031215611bd257600080fd5b5035919050565b602081526000611ba66020830184611a65565b60008060408385031215611bff57600080fd5b50508035926020909101359150565b600080600080600060808688031215611c2657600080fd5b85359450602086013567ffffffffffffffff80821115611c4557600080fd5b818801915088601f830112611c5957600080fd5b813581811115611c6857600080fd5b896020828501011115611c7a57600080fd5b6020830196508095505050506040860135915060608601358015158114611ca057600080fd5b809150509295509295909350565b634e487b7160e01b600052604160045260246000fd5b634e487b7160e01b600052603260045260246000fd5b600181811c90821680611cee57607f821691505b60208210810361068557634e487b7160e01b600052602260045260246000fd5b634e487b7160e01b600052601160045260246000fd5b600060018201611d3657611d36611d0e565b5060010190565b8082018082111561109057611090611d0e565b6502ab9b2b91d160d51b815260008451611d71816006850160208901611a15565b67016102930b7359d160c51b6006918401918201528451611d9981600e840160208901611a15565b680161029b1b7b9329d160bd1b600e92909101918201528351611dc3816017840160208801611a15565b0160170195945050505050565b808202811582820484141761109057611090611d0e565b8181038181111561109057611090611d0e565b601f821115611e46576000816000526020600020601f850160051c81016020861015611e235750805b601f850160051c820191505b81811015611e4257828155600101611e2f565b5050505b505050565b815167ffffffffffffffff811115611e6557611e65611cae565b611e7981611e738454611cda565b84611dfa565b602080601f831160018114611eae5760008415611e965750858301515b600019600386901b1c1916600185901b178555611e42565b600085815260208120601f198616915b82811015611edd57888601518255948401946001909101908401611ebe565b5085821015611efb5787850151600019600388901b60f8161c191681555b5050505050600190811b01905550565b634e487b7160e01b600052603160045260246000fd5b600082611f3e57634e487b7160e01b600052601260045260246000fd5b500490565b60ff818116838216019081111561109057611090611d0e565b600081611f6b57611f6b611d0e565b50600019019056fea26469706673582212207b0bd24dc4563defc184fc2ac97af80f2a60ad8678d90b78fb198eb85bc261e664736f6c63430008190033","linkReferences":{}},"methodIdentifiers":{"addBalance(uint256)":"d91921ed","distributeRewards(uint256)":"59974e38","leaderboard(uint256)":"bf368399","postItem(uint256,string,uint256,bool)":"ed332301","purchaseItem(uint256,uint256)":"e0675698","registerUser()":"4d3820eb","sellItem(uint256)":"91b6be9a","toString(address)":"56ca623e","uint2str(uint256)":"f76f950e","viewBalance()":"3ff1e05b","viewItem(uint256)":"6f7b0155","viewItems()":"31e3c6bb","viewLeaderBoard()":"4dbcd257","viewRole()":"2abd9c9d"},"id":24}