{"abi":[{"type":"constructor","inputs":[{"name":"_tmgr","type":"address","internalType":"contract TransactionManager"}],"stateMutability":"nonpayable"},{"type":"receive","stateMutability":"payable"},{"type":"function","name":"attack","inputs":[],"outputs":[],"stateMutability":"payable"},{"type":"function","name":"post","inputs":[],"outputs":[],"stateMutability":"payable"},{"type":"function","name":"viewAttackerBalance","inputs":[],"outputs":[{"name":"","type":"uint256","internalType":"uint256"}],"stateMutability":"payable"}],"bytecode":{"object":"0x6080604052348015600f57600080fd5b5060405161041d38038061041d833981016040819052602c916050565b600080546001600160a01b0319166001600160a01b0392909216919091179055607e565b600060208284031215606157600080fd5b81516001600160a01b0381168114607757600080fd5b9392505050565b6103908061008d6000396000f3fe6080604052600436106100385760003560e01c806305c1f502146100c45780634a773307146100cc5780639e5faafc146100e657600080fd5b366100bf5760005460405163ed33230160e01b81526001600160a01b039091169063ed3323019061007a90600190670de0b6b3a76400009082906004016102d5565b6020604051808303816000875af1158015610099573d6000803e3d6000fd5b505050506040513d601f19601f820116820180604052508101906100bd9190610318565b005b600080fd5b6100bd6100ee565b6100d46101e9565b60405190815260200160405180910390f35b6100bd610266565b60008054906101000a90046001600160a01b03166001600160a01b0316634d3820eb6040518163ffffffff1660e01b81526004016020604051808303816000875af1158015610141573d6000803e3d6000fd5b505050506040513d601f19601f820116820180604052508101906101659190610331565b506000805460405163ed33230160e01b81526001600160a01b039091169163ed332301916101a39190670de0b6b3a7640000906001906004016102d5565b6020604051808303816000875af11580156101c2573d6000803e3d6000fd5b505050506040513d601f19601f820116820180604052508101906101e69190610318565b50565b60008060009054906101000a90046001600160a01b03166001600160a01b0316633ff1e05b6040518163ffffffff1660e01b8152600401602060405180830381865afa15801561023d573d6000803e3d6000fd5b505050506040513d601f19601f820116820180604052508101906102619190610318565b905090565b6000546040516348db5f4d60e11b8152600160048201526001600160a01b03909116906391b6be9a906024016020604051808303816000875af11580156102b1573d6000803e3d6000fd5b505050506040513d601f19601f820116820180604052508101906101e69190610331565b838152608060208201526000610301608083016006815265546f6d61746f60d01b602082015260400190565b604083019490945250901515606090910152919050565b60006020828403121561032a57600080fd5b5051919050565b60006020828403121561034357600080fd5b8151801515811461035357600080fd5b939250505056fea2646970667358221220f0efdf798e0c241309386e5d69d489bff2bbd0525fe50031067fb30ace6e6d4564736f6c63430008190033","linkReferences":{}},"methodIdentifiers":{"attack()":"9e5faafc","post()":"05c1f502","viewAttackerBalance()":"4a773307"},"id":35}